{
	"w3-contracts/Agent.sol": {
		"Agent": {
			"abi": [
				{
					"anonymous": false,
					"inputs": [
						{
							"indexed": true,
							"internalType": "address",
							"name": "userAddress",
							"type": "address"
						},
						{
							"indexed": false,
							"internalType": "string",
							"name": "data",
							"type": "string"
						},
						{
							"indexed": false,
							"internalType": "address[]",
							"name": "contractAddresses",
							"type": "address[]"
						}
					],
					"name": "RequestData",
					"type": "event"
				},
				{
					"inputs": [
						{
							"internalType": "address",
							"name": "userAddress",
							"type": "address"
						},
						{
							"internalType": "address",
							"name": "callingAddress",
							"type": "address"
						},
						{
							"internalType": "string",
							"name": "data",
							"type": "string"
						},
						{
							"internalType": "address[]",
							"name": "contractAddresses",
							"type": "address[]"
						}
					],
					"name": "callOtherContracts",
					"outputs": [],
					"stateMutability": "nonpayable",
					"type": "function"
				},
				{
					"inputs": [
						{
							"internalType": "address",
							"name": "userAddress",
							"type": "address"
						},
						{
							"internalType": "string",
							"name": "data",
							"type": "string"
						},
						{
							"internalType": "address[]",
							"name": "contractAddresses",
							"type": "address[]"
						}
					],
					"name": "requestData",
					"outputs": [],
					"stateMutability": "nonpayable",
					"type": "function"
				}
			],
			"devdoc": {
				"kind": "dev",
				"methods": {},
				"version": 1
			},
			"evm": {
				"assembly": "    /* \"w3-contracts/Agent.sol\":57:976  contract Agent {... */\n  mstore(0x40, 0x80)\n  callvalue\n  dup1\n  iszero\n  tag_1\n  jumpi\n  0x00\n  dup1\n  revert\ntag_1:\n  pop\n  dataSize(sub_0)\n  dup1\n  dataOffset(sub_0)\n  0x00\n  codecopy\n  0x00\n  return\nstop\n\nsub_0: assembly {\n        /* \"w3-contracts/Agent.sol\":57:976  contract Agent {... */\n      mstore(0x40, 0x80)\n      callvalue\n      dup1\n      iszero\n      tag_1\n      jumpi\n      0x00\n      dup1\n      revert\n    tag_1:\n      pop\n      jumpi(tag_2, lt(calldatasize, 0x04))\n      shr(0xe0, calldataload(0x00))\n      dup1\n      0x1b798117\n      eq\n      tag_3\n      jumpi\n      dup1\n      0x45b2e60f\n      eq\n      tag_4\n      jumpi\n    tag_2:\n      0x00\n      dup1\n      revert\n        /* \"w3-contracts/Agent.sol\":293:525  function requestData(address userAddress, string memory data, address[] memory contractAddresses) public {... */\n    tag_3:\n      tag_5\n      0x04\n      dup1\n      calldatasize\n      sub\n      dup2\n      add\n      swap1\n      tag_6\n      swap2\n      swap1\n      tag_7\n      jump\t// in\n    tag_6:\n      tag_8\n      jump\t// in\n    tag_5:\n      stop\n        /* \"w3-contracts/Agent.sol\":626:974  function callOtherContracts(address userAddress, address callingAddress, string memory data, address[] memory contractAddresses) public {... */\n    tag_4:\n      tag_9\n      0x04\n      dup1\n      calldatasize\n      sub\n      dup2\n      add\n      swap1\n      tag_10\n      swap2\n      swap1\n      tag_11\n      jump\t// in\n    tag_10:\n      tag_12\n      jump\t// in\n    tag_9:\n      stop\n        /* \"w3-contracts/Agent.sol\":293:525  function requestData(address userAddress, string memory data, address[] memory contractAddresses) public {... */\n    tag_8:\n        /* \"w3-contracts/Agent.sol\":481:492  userAddress */\n      dup3\n        /* \"w3-contracts/Agent.sol\":469:518  RequestData(userAddress, data, contractAddresses) */\n      0xffffffffffffffffffffffffffffffffffffffff\n      and\n      0x72e8ebcae3e3b13ac834d1682aff005d8d47b878ffdacb8518facd2034de2cda\n        /* \"w3-contracts/Agent.sol\":494:498  data */\n      dup4\n        /* \"w3-contracts/Agent.sol\":500:517  contractAddresses */\n      dup4\n        /* \"w3-contracts/Agent.sol\":469:518  RequestData(userAddress, data, contractAddresses) */\n      mload(0x40)\n      tag_14\n      swap3\n      swap2\n      swap1\n      tag_15\n      jump\t// in\n    tag_14:\n      mload(0x40)\n      dup1\n      swap2\n      sub\n      swap1\n      log2\n        /* \"w3-contracts/Agent.sol\":293:525  function requestData(address userAddress, string memory data, address[] memory contractAddresses) public {... */\n      pop\n      pop\n      pop\n      jump\t// out\n        /* \"w3-contracts/Agent.sol\":626:974  function callOtherContracts(address userAddress, address callingAddress, string memory data, address[] memory contractAddresses) public {... */\n    tag_12:\n        /* \"w3-contracts/Agent.sol\":773:785  bool success */\n      0x00\n        /* \"w3-contracts/Agent.sol\":791:805  callingAddress */\n      dup4\n        /* \"w3-contracts/Agent.sol\":791:810  callingAddress.call */\n      0xffffffffffffffffffffffffffffffffffffffff\n      and\n        /* \"w3-contracts/Agent.sol\":876:887  userAddress */\n      dup6\n        /* \"w3-contracts/Agent.sol\":889:893  data */\n      dup5\n        /* \"w3-contracts/Agent.sol\":895:912  contractAddresses */\n      dup5\n        /* \"w3-contracts/Agent.sol\":811:913  abi.encodeWithSignature(\"requestData(address,string,address[])\", userAddress, data, contractAddresses) */\n      add(0x24, mload(0x40))\n      tag_17\n      swap4\n      swap3\n      swap2\n      swap1\n      tag_18\n      jump\t// in\n    tag_17:\n      mload(0x40)\n      0x20\n      dup2\n      dup4\n      sub\n      sub\n      dup2\n      mstore\n      swap1\n      0x40\n      mstore\n      and(not(0xffffffffffffffffffffffffffffffffffffffffffffffffffffffff), 0x1b79811700000000000000000000000000000000000000000000000000000000)\n      0x20\n      dup3\n      add\n      dup1\n      mload\n      0xffffffffffffffffffffffffffffffffffffffffffffffffffffffff\n      dup4\n      dup2\n      dup4\n      and\n      or\n      dup4\n      mstore\n      pop\n      pop\n      pop\n      pop\n        /* \"w3-contracts/Agent.sol\":791:914  callingAddress.call(abi.encodeWithSignature(\"requestData(address,string,address[])\", userAddress, data, contractAddresses)) */\n      mload(0x40)\n      tag_19\n      swap2\n      swap1\n      tag_20\n      jump\t// in\n    tag_19:\n      0x00\n      mload(0x40)\n      dup1\n      dup4\n      sub\n      dup2\n      0x00\n      dup7\n      gas\n      call\n      swap2\n      pop\n      pop\n      returndatasize\n      dup1\n      0x00\n      dup2\n      eq\n      tag_23\n      jumpi\n      mload(0x40)\n      swap2\n      pop\n      and(add(returndatasize, 0x3f), not(0x1f))\n      dup3\n      add\n      0x40\n      mstore\n      returndatasize\n      dup3\n      mstore\n      returndatasize\n      0x00\n      0x20\n      dup5\n      add\n      returndatacopy\n      jump(tag_22)\n    tag_23:\n      0x60\n      swap2\n      pop\n    tag_22:\n      pop\n        /* \"w3-contracts/Agent.sol\":772:914  (bool success, ) = callingAddress.call(abi.encodeWithSignature(\"requestData(address,string,address[])\", userAddress, data, contractAddresses)) */\n      pop\n      swap1\n      pop\n        /* \"w3-contracts/Agent.sol\":932:939  success */\n      dup1\n        /* \"w3-contracts/Agent.sol\":924:967  require(success, \"Failed to call contract\") */\n      tag_24\n      jumpi\n      mload(0x40)\n      0x08c379a000000000000000000000000000000000000000000000000000000000\n      dup2\n      mstore\n      0x04\n      add\n      tag_25\n      swap1\n      tag_26\n      jump\t// in\n    tag_25:\n      mload(0x40)\n      dup1\n      swap2\n      sub\n      swap1\n      revert\n    tag_24:\n        /* \"w3-contracts/Agent.sol\":762:974  {... */\n      pop\n        /* \"w3-contracts/Agent.sol\":626:974  function callOtherContracts(address userAddress, address callingAddress, string memory data, address[] memory contractAddresses) public {... */\n      pop\n      pop\n      pop\n      pop\n      jump\t// out\n        /* \"#utility.yul\":7:82   */\n    tag_27:\n        /* \"#utility.yul\":40:46   */\n      0x00\n        /* \"#utility.yul\":73:75   */\n      0x40\n        /* \"#utility.yul\":67:76   */\n      mload\n        /* \"#utility.yul\":57:76   */\n      swap1\n      pop\n        /* \"#utility.yul\":7:82   */\n      swap1\n      jump\t// out\n        /* \"#utility.yul\":88:205   */\n    tag_28:\n        /* \"#utility.yul\":197:198   */\n      0x00\n        /* \"#utility.yul\":194:195   */\n      dup1\n        /* \"#utility.yul\":187:199   */\n      revert\n        /* \"#utility.yul\":211:328   */\n    tag_29:\n        /* \"#utility.yul\":320:321   */\n      0x00\n        /* \"#utility.yul\":317:318   */\n      dup1\n        /* \"#utility.yul\":310:322   */\n      revert\n        /* \"#utility.yul\":334:460   */\n    tag_30:\n        /* \"#utility.yul\":371:378   */\n      0x00\n        /* \"#utility.yul\":411:453   */\n      0xffffffffffffffffffffffffffffffffffffffff\n        /* \"#utility.yul\":404:409   */\n      dup3\n        /* \"#utility.yul\":400:454   */\n      and\n        /* \"#utility.yul\":389:454   */\n      swap1\n      pop\n        /* \"#utility.yul\":334:460   */\n      swap2\n      swap1\n      pop\n      jump\t// out\n        /* \"#utility.yul\":466:562   */\n    tag_31:\n        /* \"#utility.yul\":503:510   */\n      0x00\n        /* \"#utility.yul\":532:556   */\n      tag_71\n        /* \"#utility.yul\":550:555   */\n      dup3\n        /* \"#utility.yul\":532:556   */\n      tag_30\n      jump\t// in\n    tag_71:\n        /* \"#utility.yul\":521:556   */\n      swap1\n      pop\n        /* \"#utility.yul\":466:562   */\n      swap2\n      swap1\n      pop\n      jump\t// out\n        /* \"#utility.yul\":568:690   */\n    tag_32:\n        /* \"#utility.yul\":641:665   */\n      tag_73\n        /* \"#utility.yul\":659:664   */\n      dup2\n        /* \"#utility.yul\":641:665   */\n      tag_31\n      jump\t// in\n    tag_73:\n        /* \"#utility.yul\":634:639   */\n      dup2\n        /* \"#utility.yul\":631:666   */\n      eq\n        /* \"#utility.yul\":621:684   */\n      tag_74\n      jumpi\n        /* \"#utility.yul\":680:681   */\n      0x00\n        /* \"#utility.yul\":677:678   */\n      dup1\n        /* \"#utility.yul\":670:682   */\n      revert\n        /* \"#utility.yul\":621:684   */\n    tag_74:\n        /* \"#utility.yul\":568:690   */\n      pop\n      jump\t// out\n        /* \"#utility.yul\":696:835   */\n    tag_33:\n        /* \"#utility.yul\":742:747   */\n      0x00\n        /* \"#utility.yul\":780:786   */\n      dup2\n        /* \"#utility.yul\":767:787   */\n      calldataload\n        /* \"#utility.yul\":758:787   */\n      swap1\n      pop\n        /* \"#utility.yul\":796:829   */\n      tag_76\n        /* \"#utility.yul\":823:828   */\n      dup2\n        /* \"#utility.yul\":796:829   */\n      tag_32\n      jump\t// in\n    tag_76:\n        /* \"#utility.yul\":696:835   */\n      swap3\n      swap2\n      pop\n      pop\n      jump\t// out\n        /* \"#utility.yul\":841:958   */\n    tag_34:\n        /* \"#utility.yul\":950:951   */\n      0x00\n        /* \"#utility.yul\":947:948   */\n      dup1\n        /* \"#utility.yul\":940:952   */\n      revert\n        /* \"#utility.yul\":964:1081   */\n    tag_35:\n        /* \"#utility.yul\":1073:1074   */\n      0x00\n        /* \"#utility.yul\":1070:1071   */\n      dup1\n        /* \"#utility.yul\":1063:1075   */\n      revert\n        /* \"#utility.yul\":1087:1189   */\n    tag_36:\n        /* \"#utility.yul\":1128:1134   */\n      0x00\n        /* \"#utility.yul\":1179:1181   */\n      0x1f\n        /* \"#utility.yul\":1175:1182   */\n      not\n        /* \"#utility.yul\":1170:1172   */\n      0x1f\n        /* \"#utility.yul\":1163:1168   */\n      dup4\n        /* \"#utility.yul\":1159:1173   */\n      add\n        /* \"#utility.yul\":1155:1183   */\n      and\n        /* \"#utility.yul\":1145:1183   */\n      swap1\n      pop\n        /* \"#utility.yul\":1087:1189   */\n      swap2\n      swap1\n      pop\n      jump\t// out\n        /* \"#utility.yul\":1195:1375   */\n    tag_37:\n        /* \"#utility.yul\":1243:1320   */\n      0x4e487b7100000000000000000000000000000000000000000000000000000000\n        /* \"#utility.yul\":1240:1241   */\n      0x00\n        /* \"#utility.yul\":1233:1321   */\n      mstore\n        /* \"#utility.yul\":1340:1344   */\n      0x41\n        /* \"#utility.yul\":1337:1338   */\n      0x04\n        /* \"#utility.yul\":1330:1345   */\n      mstore\n        /* \"#utility.yul\":1364:1368   */\n      0x24\n        /* \"#utility.yul\":1361:1362   */\n      0x00\n        /* \"#utility.yul\":1354:1369   */\n      revert\n        /* \"#utility.yul\":1381:1662   */\n    tag_38:\n        /* \"#utility.yul\":1464:1491   */\n      tag_82\n        /* \"#utility.yul\":1486:1490   */\n      dup3\n        /* \"#utility.yul\":1464:1491   */\n      tag_36\n      jump\t// in\n    tag_82:\n        /* \"#utility.yul\":1456:1462   */\n      dup2\n        /* \"#utility.yul\":1452:1492   */\n      add\n        /* \"#utility.yul\":1594:1600   */\n      dup2\n        /* \"#utility.yul\":1582:1592   */\n      dup2\n        /* \"#utility.yul\":1579:1601   */\n      lt\n        /* \"#utility.yul\":1558:1576   */\n      0xffffffffffffffff\n        /* \"#utility.yul\":1546:1556   */\n      dup3\n        /* \"#utility.yul\":1543:1577   */\n      gt\n        /* \"#utility.yul\":1540:1602   */\n      or\n        /* \"#utility.yul\":1537:1625   */\n      iszero\n      tag_83\n      jumpi\n        /* \"#utility.yul\":1605:1623   */\n      tag_84\n      tag_37\n      jump\t// in\n    tag_84:\n        /* \"#utility.yul\":1537:1625   */\n    tag_83:\n        /* \"#utility.yul\":1645:1655   */\n      dup1\n        /* \"#utility.yul\":1641:1643   */\n      0x40\n        /* \"#utility.yul\":1634:1656   */\n      mstore\n        /* \"#utility.yul\":1424:1662   */\n      pop\n        /* \"#utility.yul\":1381:1662   */\n      pop\n      pop\n      jump\t// out\n        /* \"#utility.yul\":1668:1797   */\n    tag_39:\n        /* \"#utility.yul\":1702:1708   */\n      0x00\n        /* \"#utility.yul\":1729:1749   */\n      tag_86\n      tag_27\n      jump\t// in\n    tag_86:\n        /* \"#utility.yul\":1719:1749   */\n      swap1\n      pop\n        /* \"#utility.yul\":1758:1791   */\n      tag_87\n        /* \"#utility.yul\":1786:1790   */\n      dup3\n        /* \"#utility.yul\":1778:1784   */\n      dup3\n        /* \"#utility.yul\":1758:1791   */\n      tag_38\n      jump\t// in\n    tag_87:\n        /* \"#utility.yul\":1668:1797   */\n      swap2\n      swap1\n      pop\n      jump\t// out\n        /* \"#utility.yul\":1803:2111   */\n    tag_40:\n        /* \"#utility.yul\":1865:1869   */\n      0x00\n        /* \"#utility.yul\":1955:1973   */\n      0xffffffffffffffff\n        /* \"#utility.yul\":1947:1953   */\n      dup3\n        /* \"#utility.yul\":1944:1974   */\n      gt\n        /* \"#utility.yul\":1941:1997   */\n      iszero\n      tag_89\n      jumpi\n        /* \"#utility.yul\":1977:1995   */\n      tag_90\n      tag_37\n      jump\t// in\n    tag_90:\n        /* \"#utility.yul\":1941:1997   */\n    tag_89:\n        /* \"#utility.yul\":2015:2044   */\n      tag_91\n        /* \"#utility.yul\":2037:2043   */\n      dup3\n        /* \"#utility.yul\":2015:2044   */\n      tag_36\n      jump\t// in\n    tag_91:\n        /* \"#utility.yul\":2007:2044   */\n      swap1\n      pop\n        /* \"#utility.yul\":2099:2103   */\n      0x20\n        /* \"#utility.yul\":2093:2097   */\n      dup2\n        /* \"#utility.yul\":2089:2104   */\n      add\n        /* \"#utility.yul\":2081:2104   */\n      swap1\n      pop\n        /* \"#utility.yul\":1803:2111   */\n      swap2\n      swap1\n      pop\n      jump\t// out\n        /* \"#utility.yul\":2117:2265   */\n    tag_41:\n        /* \"#utility.yul\":2215:2221   */\n      dup3\n        /* \"#utility.yul\":2210:2213   */\n      dup2\n        /* \"#utility.yul\":2205:2208   */\n      dup4\n        /* \"#utility.yul\":2192:2222   */\n      calldatacopy\n        /* \"#utility.yul\":2256:2257   */\n      0x00\n        /* \"#utility.yul\":2247:2253   */\n      dup4\n        /* \"#utility.yul\":2242:2245   */\n      dup4\n        /* \"#utility.yul\":2238:2254   */\n      add\n        /* \"#utility.yul\":2231:2258   */\n      mstore\n        /* \"#utility.yul\":2117:2265   */\n      pop\n      pop\n      pop\n      jump\t// out\n        /* \"#utility.yul\":2271:2696   */\n    tag_42:\n        /* \"#utility.yul\":2349:2354   */\n      0x00\n        /* \"#utility.yul\":2374:2440   */\n      tag_94\n        /* \"#utility.yul\":2390:2439   */\n      tag_95\n        /* \"#utility.yul\":2432:2438   */\n      dup5\n        /* \"#utility.yul\":2390:2439   */\n      tag_40\n      jump\t// in\n    tag_95:\n        /* \"#utility.yul\":2374:2440   */\n      tag_39\n      jump\t// in\n    tag_94:\n        /* \"#utility.yul\":2365:2440   */\n      swap1\n      pop\n        /* \"#utility.yul\":2463:2469   */\n      dup3\n        /* \"#utility.yul\":2456:2461   */\n      dup2\n        /* \"#utility.yul\":2449:2470   */\n      mstore\n        /* \"#utility.yul\":2501:2505   */\n      0x20\n        /* \"#utility.yul\":2494:2499   */\n      dup2\n        /* \"#utility.yul\":2490:2506   */\n      add\n        /* \"#utility.yul\":2539:2542   */\n      dup5\n        /* \"#utility.yul\":2530:2536   */\n      dup5\n        /* \"#utility.yul\":2525:2528   */\n      dup5\n        /* \"#utility.yul\":2521:2537   */\n      add\n        /* \"#utility.yul\":2518:2543   */\n      gt\n        /* \"#utility.yul\":2515:2627   */\n      iszero\n      tag_96\n      jumpi\n        /* \"#utility.yul\":2546:2625   */\n      tag_97\n      tag_35\n      jump\t// in\n    tag_97:\n        /* \"#utility.yul\":2515:2627   */\n    tag_96:\n        /* \"#utility.yul\":2636:2690   */\n      tag_98\n        /* \"#utility.yul\":2683:2689   */\n      dup5\n        /* \"#utility.yul\":2678:2681   */\n      dup3\n        /* \"#utility.yul\":2673:2676   */\n      dup6\n        /* \"#utility.yul\":2636:2690   */\n      tag_41\n      jump\t// in\n    tag_98:\n        /* \"#utility.yul\":2355:2696   */\n      pop\n        /* \"#utility.yul\":2271:2696   */\n      swap4\n      swap3\n      pop\n      pop\n      pop\n      jump\t// out\n        /* \"#utility.yul\":2716:3056   */\n    tag_43:\n        /* \"#utility.yul\":2772:2777   */\n      0x00\n        /* \"#utility.yul\":2821:2824   */\n      dup3\n        /* \"#utility.yul\":2814:2818   */\n      0x1f\n        /* \"#utility.yul\":2806:2812   */\n      dup4\n        /* \"#utility.yul\":2802:2819   */\n      add\n        /* \"#utility.yul\":2798:2825   */\n      slt\n        /* \"#utility.yul\":2788:2910   */\n      tag_100\n      jumpi\n        /* \"#utility.yul\":2829:2908   */\n      tag_101\n      tag_34\n      jump\t// in\n    tag_101:\n        /* \"#utility.yul\":2788:2910   */\n    tag_100:\n        /* \"#utility.yul\":2946:2952   */\n      dup2\n        /* \"#utility.yul\":2933:2953   */\n      calldataload\n        /* \"#utility.yul\":2971:3050   */\n      tag_102\n        /* \"#utility.yul\":3046:3049   */\n      dup5\n        /* \"#utility.yul\":3038:3044   */\n      dup3\n        /* \"#utility.yul\":3031:3035   */\n      0x20\n        /* \"#utility.yul\":3023:3029   */\n      dup7\n        /* \"#utility.yul\":3019:3036   */\n      add\n        /* \"#utility.yul\":2971:3050   */\n      tag_42\n      jump\t// in\n    tag_102:\n        /* \"#utility.yul\":2962:3050   */\n      swap2\n      pop\n        /* \"#utility.yul\":2778:3056   */\n      pop\n        /* \"#utility.yul\":2716:3056   */\n      swap3\n      swap2\n      pop\n      pop\n      jump\t// out\n        /* \"#utility.yul\":3062:3373   */\n    tag_44:\n        /* \"#utility.yul\":3139:3143   */\n      0x00\n        /* \"#utility.yul\":3229:3247   */\n      0xffffffffffffffff\n        /* \"#utility.yul\":3221:3227   */\n      dup3\n        /* \"#utility.yul\":3218:3248   */\n      gt\n        /* \"#utility.yul\":3215:3271   */\n      iszero\n      tag_104\n      jumpi\n        /* \"#utility.yul\":3251:3269   */\n      tag_105\n      tag_37\n      jump\t// in\n    tag_105:\n        /* \"#utility.yul\":3215:3271   */\n    tag_104:\n        /* \"#utility.yul\":3301:3305   */\n      0x20\n        /* \"#utility.yul\":3293:3299   */\n      dup3\n        /* \"#utility.yul\":3289:3306   */\n      mul\n        /* \"#utility.yul\":3281:3306   */\n      swap1\n      pop\n        /* \"#utility.yul\":3361:3365   */\n      0x20\n        /* \"#utility.yul\":3355:3359   */\n      dup2\n        /* \"#utility.yul\":3351:3366   */\n      add\n        /* \"#utility.yul\":3343:3366   */\n      swap1\n      pop\n        /* \"#utility.yul\":3062:3373   */\n      swap2\n      swap1\n      pop\n      jump\t// out\n        /* \"#utility.yul\":3379:3496   */\n    tag_45:\n        /* \"#utility.yul\":3488:3489   */\n      0x00\n        /* \"#utility.yul\":3485:3486   */\n      dup1\n        /* \"#utility.yul\":3478:3490   */\n      revert\n        /* \"#utility.yul\":3519:4229   */\n    tag_46:\n        /* \"#utility.yul\":3615:3620   */\n      0x00\n        /* \"#utility.yul\":3640:3721   */\n      tag_108\n        /* \"#utility.yul\":3656:3720   */\n      tag_109\n        /* \"#utility.yul\":3713:3719   */\n      dup5\n        /* \"#utility.yul\":3656:3720   */\n      tag_44\n      jump\t// in\n    tag_109:\n        /* \"#utility.yul\":3640:3721   */\n      tag_39\n      jump\t// in\n    tag_108:\n        /* \"#utility.yul\":3631:3721   */\n      swap1\n      pop\n        /* \"#utility.yul\":3741:3746   */\n      dup1\n        /* \"#utility.yul\":3770:3776   */\n      dup4\n        /* \"#utility.yul\":3763:3768   */\n      dup3\n        /* \"#utility.yul\":3756:3777   */\n      mstore\n        /* \"#utility.yul\":3804:3808   */\n      0x20\n        /* \"#utility.yul\":3797:3802   */\n      dup3\n        /* \"#utility.yul\":3793:3809   */\n      add\n        /* \"#utility.yul\":3786:3809   */\n      swap1\n      pop\n        /* \"#utility.yul\":3857:3861   */\n      0x20\n        /* \"#utility.yul\":3849:3855   */\n      dup5\n        /* \"#utility.yul\":3845:3862   */\n      mul\n        /* \"#utility.yul\":3837:3843   */\n      dup4\n        /* \"#utility.yul\":3833:3863   */\n      add\n        /* \"#utility.yul\":3886:3889   */\n      dup6\n        /* \"#utility.yul\":3878:3884   */\n      dup2\n        /* \"#utility.yul\":3875:3890   */\n      gt\n        /* \"#utility.yul\":3872:3994   */\n      iszero\n      tag_110\n      jumpi\n        /* \"#utility.yul\":3905:3984   */\n      tag_111\n      tag_45\n      jump\t// in\n    tag_111:\n        /* \"#utility.yul\":3872:3994   */\n    tag_110:\n        /* \"#utility.yul\":4020:4026   */\n      dup4\n        /* \"#utility.yul\":4003:4223   */\n    tag_112:\n        /* \"#utility.yul\":4037:4043   */\n      dup2\n        /* \"#utility.yul\":4032:4035   */\n      dup2\n        /* \"#utility.yul\":4029:4044   */\n      lt\n        /* \"#utility.yul\":4003:4223   */\n      iszero\n      tag_114\n      jumpi\n        /* \"#utility.yul\":4112:4115   */\n      dup1\n        /* \"#utility.yul\":4141:4178   */\n      tag_115\n        /* \"#utility.yul\":4174:4177   */\n      dup9\n        /* \"#utility.yul\":4162:4172   */\n      dup3\n        /* \"#utility.yul\":4141:4178   */\n      tag_33\n      jump\t// in\n    tag_115:\n        /* \"#utility.yul\":4136:4139   */\n      dup5\n        /* \"#utility.yul\":4129:4179   */\n      mstore\n        /* \"#utility.yul\":4208:4212   */\n      0x20\n        /* \"#utility.yul\":4203:4206   */\n      dup5\n        /* \"#utility.yul\":4199:4213   */\n      add\n        /* \"#utility.yul\":4192:4213   */\n      swap4\n      pop\n        /* \"#utility.yul\":4079:4223   */\n      pop\n        /* \"#utility.yul\":4063:4067   */\n      0x20\n        /* \"#utility.yul\":4058:4061   */\n      dup2\n        /* \"#utility.yul\":4054:4068   */\n      add\n        /* \"#utility.yul\":4047:4068   */\n      swap1\n      pop\n        /* \"#utility.yul\":4003:4223   */\n      jump(tag_112)\n    tag_114:\n        /* \"#utility.yul\":4007:4028   */\n      pop\n        /* \"#utility.yul\":3621:4229   */\n      pop\n      pop\n        /* \"#utility.yul\":3519:4229   */\n      swap4\n      swap3\n      pop\n      pop\n      pop\n      jump\t// out\n        /* \"#utility.yul\":4252:4622   */\n    tag_47:\n        /* \"#utility.yul\":4323:4328   */\n      0x00\n        /* \"#utility.yul\":4372:4375   */\n      dup3\n        /* \"#utility.yul\":4365:4369   */\n      0x1f\n        /* \"#utility.yul\":4357:4363   */\n      dup4\n        /* \"#utility.yul\":4353:4370   */\n      add\n        /* \"#utility.yul\":4349:4376   */\n      slt\n        /* \"#utility.yul\":4339:4461   */\n      tag_117\n      jumpi\n        /* \"#utility.yul\":4380:4459   */\n      tag_118\n      tag_34\n      jump\t// in\n    tag_118:\n        /* \"#utility.yul\":4339:4461   */\n    tag_117:\n        /* \"#utility.yul\":4497:4503   */\n      dup2\n        /* \"#utility.yul\":4484:4504   */\n      calldataload\n        /* \"#utility.yul\":4522:4616   */\n      tag_119\n        /* \"#utility.yul\":4612:4615   */\n      dup5\n        /* \"#utility.yul\":4604:4610   */\n      dup3\n        /* \"#utility.yul\":4597:4601   */\n      0x20\n        /* \"#utility.yul\":4589:4595   */\n      dup7\n        /* \"#utility.yul\":4585:4602   */\n      add\n        /* \"#utility.yul\":4522:4616   */\n      tag_46\n      jump\t// in\n    tag_119:\n        /* \"#utility.yul\":4513:4616   */\n      swap2\n      pop\n        /* \"#utility.yul\":4329:4622   */\n      pop\n        /* \"#utility.yul\":4252:4622   */\n      swap3\n      swap2\n      pop\n      pop\n      jump\t// out\n        /* \"#utility.yul\":4628:5637   */\n    tag_7:\n        /* \"#utility.yul\":4740:4746   */\n      0x00\n        /* \"#utility.yul\":4748:4754   */\n      dup1\n        /* \"#utility.yul\":4756:4762   */\n      0x00\n        /* \"#utility.yul\":4805:4807   */\n      0x60\n        /* \"#utility.yul\":4793:4802   */\n      dup5\n        /* \"#utility.yul\":4784:4791   */\n      dup7\n        /* \"#utility.yul\":4780:4803   */\n      sub\n        /* \"#utility.yul\":4776:4808   */\n      slt\n        /* \"#utility.yul\":4773:4892   */\n      iszero\n      tag_121\n      jumpi\n        /* \"#utility.yul\":4811:4890   */\n      tag_122\n      tag_28\n      jump\t// in\n    tag_122:\n        /* \"#utility.yul\":4773:4892   */\n    tag_121:\n        /* \"#utility.yul\":4931:4932   */\n      0x00\n        /* \"#utility.yul\":4956:5009   */\n      tag_123\n        /* \"#utility.yul\":5001:5008   */\n      dup7\n        /* \"#utility.yul\":4992:4998   */\n      dup3\n        /* \"#utility.yul\":4981:4990   */\n      dup8\n        /* \"#utility.yul\":4977:4999   */\n      add\n        /* \"#utility.yul\":4956:5009   */\n      tag_33\n      jump\t// in\n    tag_123:\n        /* \"#utility.yul\":4946:5009   */\n      swap4\n      pop\n        /* \"#utility.yul\":4902:5019   */\n      pop\n        /* \"#utility.yul\":5086:5088   */\n      0x20\n        /* \"#utility.yul\":5075:5084   */\n      dup5\n        /* \"#utility.yul\":5071:5089   */\n      add\n        /* \"#utility.yul\":5058:5090   */\n      calldataload\n        /* \"#utility.yul\":5117:5135   */\n      0xffffffffffffffff\n        /* \"#utility.yul\":5109:5115   */\n      dup2\n        /* \"#utility.yul\":5106:5136   */\n      gt\n        /* \"#utility.yul\":5103:5220   */\n      iszero\n      tag_124\n      jumpi\n        /* \"#utility.yul\":5139:5218   */\n      tag_125\n      tag_29\n      jump\t// in\n    tag_125:\n        /* \"#utility.yul\":5103:5220   */\n    tag_124:\n        /* \"#utility.yul\":5244:5307   */\n      tag_126\n        /* \"#utility.yul\":5299:5306   */\n      dup7\n        /* \"#utility.yul\":5290:5296   */\n      dup3\n        /* \"#utility.yul\":5279:5288   */\n      dup8\n        /* \"#utility.yul\":5275:5297   */\n      add\n        /* \"#utility.yul\":5244:5307   */\n      tag_43\n      jump\t// in\n    tag_126:\n        /* \"#utility.yul\":5234:5307   */\n      swap3\n      pop\n        /* \"#utility.yul\":5029:5317   */\n      pop\n        /* \"#utility.yul\":5384:5386   */\n      0x40\n        /* \"#utility.yul\":5373:5382   */\n      dup5\n        /* \"#utility.yul\":5369:5387   */\n      add\n        /* \"#utility.yul\":5356:5388   */\n      calldataload\n        /* \"#utility.yul\":5415:5433   */\n      0xffffffffffffffff\n        /* \"#utility.yul\":5407:5413   */\n      dup2\n        /* \"#utility.yul\":5404:5434   */\n      gt\n        /* \"#utility.yul\":5401:5518   */\n      iszero\n      tag_127\n      jumpi\n        /* \"#utility.yul\":5437:5516   */\n      tag_128\n      tag_29\n      jump\t// in\n    tag_128:\n        /* \"#utility.yul\":5401:5518   */\n    tag_127:\n        /* \"#utility.yul\":5542:5620   */\n      tag_129\n        /* \"#utility.yul\":5612:5619   */\n      dup7\n        /* \"#utility.yul\":5603:5609   */\n      dup3\n        /* \"#utility.yul\":5592:5601   */\n      dup8\n        /* \"#utility.yul\":5588:5610   */\n      add\n        /* \"#utility.yul\":5542:5620   */\n      tag_47\n      jump\t// in\n    tag_129:\n        /* \"#utility.yul\":5532:5620   */\n      swap2\n      pop\n        /* \"#utility.yul\":5327:5630   */\n      pop\n        /* \"#utility.yul\":4628:5637   */\n      swap3\n      pop\n      swap3\n      pop\n      swap3\n      jump\t// out\n        /* \"#utility.yul\":5643:6798   */\n    tag_11:\n        /* \"#utility.yul\":5764:5770   */\n      0x00\n        /* \"#utility.yul\":5772:5778   */\n      dup1\n        /* \"#utility.yul\":5780:5786   */\n      0x00\n        /* \"#utility.yul\":5788:5794   */\n      dup1\n        /* \"#utility.yul\":5837:5840   */\n      0x80\n        /* \"#utility.yul\":5825:5834   */\n      dup6\n        /* \"#utility.yul\":5816:5823   */\n      dup8\n        /* \"#utility.yul\":5812:5835   */\n      sub\n        /* \"#utility.yul\":5808:5841   */\n      slt\n        /* \"#utility.yul\":5805:5925   */\n      iszero\n      tag_131\n      jumpi\n        /* \"#utility.yul\":5844:5923   */\n      tag_132\n      tag_28\n      jump\t// in\n    tag_132:\n        /* \"#utility.yul\":5805:5925   */\n    tag_131:\n        /* \"#utility.yul\":5964:5965   */\n      0x00\n        /* \"#utility.yul\":5989:6042   */\n      tag_133\n        /* \"#utility.yul\":6034:6041   */\n      dup8\n        /* \"#utility.yul\":6025:6031   */\n      dup3\n        /* \"#utility.yul\":6014:6023   */\n      dup9\n        /* \"#utility.yul\":6010:6032   */\n      add\n        /* \"#utility.yul\":5989:6042   */\n      tag_33\n      jump\t// in\n    tag_133:\n        /* \"#utility.yul\":5979:6042   */\n      swap5\n      pop\n        /* \"#utility.yul\":5935:6052   */\n      pop\n        /* \"#utility.yul\":6091:6093   */\n      0x20\n        /* \"#utility.yul\":6117:6170   */\n      tag_134\n        /* \"#utility.yul\":6162:6169   */\n      dup8\n        /* \"#utility.yul\":6153:6159   */\n      dup3\n        /* \"#utility.yul\":6142:6151   */\n      dup9\n        /* \"#utility.yul\":6138:6160   */\n      add\n        /* \"#utility.yul\":6117:6170   */\n      tag_33\n      jump\t// in\n    tag_134:\n        /* \"#utility.yul\":6107:6170   */\n      swap4\n      pop\n        /* \"#utility.yul\":6062:6180   */\n      pop\n        /* \"#utility.yul\":6247:6249   */\n      0x40\n        /* \"#utility.yul\":6236:6245   */\n      dup6\n        /* \"#utility.yul\":6232:6250   */\n      add\n        /* \"#utility.yul\":6219:6251   */\n      calldataload\n        /* \"#utility.yul\":6278:6296   */\n      0xffffffffffffffff\n        /* \"#utility.yul\":6270:6276   */\n      dup2\n        /* \"#utility.yul\":6267:6297   */\n      gt\n        /* \"#utility.yul\":6264:6381   */\n      iszero\n      tag_135\n      jumpi\n        /* \"#utility.yul\":6300:6379   */\n      tag_136\n      tag_29\n      jump\t// in\n    tag_136:\n        /* \"#utility.yul\":6264:6381   */\n    tag_135:\n        /* \"#utility.yul\":6405:6468   */\n      tag_137\n        /* \"#utility.yul\":6460:6467   */\n      dup8\n        /* \"#utility.yul\":6451:6457   */\n      dup3\n        /* \"#utility.yul\":6440:6449   */\n      dup9\n        /* \"#utility.yul\":6436:6458   */\n      add\n        /* \"#utility.yul\":6405:6468   */\n      tag_43\n      jump\t// in\n    tag_137:\n        /* \"#utility.yul\":6395:6468   */\n      swap3\n      pop\n        /* \"#utility.yul\":6190:6478   */\n      pop\n        /* \"#utility.yul\":6545:6547   */\n      0x60\n        /* \"#utility.yul\":6534:6543   */\n      dup6\n        /* \"#utility.yul\":6530:6548   */\n      add\n        /* \"#utility.yul\":6517:6549   */\n      calldataload\n        /* \"#utility.yul\":6576:6594   */\n      0xffffffffffffffff\n        /* \"#utility.yul\":6568:6574   */\n      dup2\n        /* \"#utility.yul\":6565:6595   */\n      gt\n        /* \"#utility.yul\":6562:6679   */\n      iszero\n      tag_138\n      jumpi\n        /* \"#utility.yul\":6598:6677   */\n      tag_139\n      tag_29\n      jump\t// in\n    tag_139:\n        /* \"#utility.yul\":6562:6679   */\n    tag_138:\n        /* \"#utility.yul\":6703:6781   */\n      tag_140\n        /* \"#utility.yul\":6773:6780   */\n      dup8\n        /* \"#utility.yul\":6764:6770   */\n      dup3\n        /* \"#utility.yul\":6753:6762   */\n      dup9\n        /* \"#utility.yul\":6749:6771   */\n      add\n        /* \"#utility.yul\":6703:6781   */\n      tag_47\n      jump\t// in\n    tag_140:\n        /* \"#utility.yul\":6693:6781   */\n      swap2\n      pop\n        /* \"#utility.yul\":6488:6791   */\n      pop\n        /* \"#utility.yul\":5643:6798   */\n      swap3\n      swap6\n      swap2\n      swap5\n      pop\n      swap3\n      pop\n      jump\t// out\n        /* \"#utility.yul\":6804:6903   */\n    tag_48:\n        /* \"#utility.yul\":6856:6862   */\n      0x00\n        /* \"#utility.yul\":6890:6895   */\n      dup2\n        /* \"#utility.yul\":6884:6896   */\n      mload\n        /* \"#utility.yul\":6874:6896   */\n      swap1\n      pop\n        /* \"#utility.yul\":6804:6903   */\n      swap2\n      swap1\n      pop\n      jump\t// out\n        /* \"#utility.yul\":6909:7078   */\n    tag_49:\n        /* \"#utility.yul\":6993:7004   */\n      0x00\n        /* \"#utility.yul\":7027:7033   */\n      dup3\n        /* \"#utility.yul\":7022:7025   */\n      dup3\n        /* \"#utility.yul\":7015:7034   */\n      mstore\n        /* \"#utility.yul\":7067:7071   */\n      0x20\n        /* \"#utility.yul\":7062:7065   */\n      dup3\n        /* \"#utility.yul\":7058:7072   */\n      add\n        /* \"#utility.yul\":7043:7072   */\n      swap1\n      pop\n        /* \"#utility.yul\":6909:7078   */\n      swap3\n      swap2\n      pop\n      pop\n      jump\t// out\n        /* \"#utility.yul\":7084:7223   */\n    tag_50:\n        /* \"#utility.yul\":7173:7179   */\n      dup3\n        /* \"#utility.yul\":7168:7171   */\n      dup2\n        /* \"#utility.yul\":7163:7166   */\n      dup4\n        /* \"#utility.yul\":7157:7180   */\n      mcopy\n        /* \"#utility.yul\":7214:7215   */\n      0x00\n        /* \"#utility.yul\":7205:7211   */\n      dup4\n        /* \"#utility.yul\":7200:7203   */\n      dup4\n        /* \"#utility.yul\":7196:7212   */\n      add\n        /* \"#utility.yul\":7189:7216   */\n      mstore\n        /* \"#utility.yul\":7084:7223   */\n      pop\n      pop\n      pop\n      jump\t// out\n        /* \"#utility.yul\":7229:7606   */\n    tag_51:\n        /* \"#utility.yul\":7317:7320   */\n      0x00\n        /* \"#utility.yul\":7345:7384   */\n      tag_145\n        /* \"#utility.yul\":7378:7383   */\n      dup3\n        /* \"#utility.yul\":7345:7384   */\n      tag_48\n      jump\t// in\n    tag_145:\n        /* \"#utility.yul\":7400:7471   */\n      tag_146\n        /* \"#utility.yul\":7464:7470   */\n      dup2\n        /* \"#utility.yul\":7459:7462   */\n      dup6\n        /* \"#utility.yul\":7400:7471   */\n      tag_49\n      jump\t// in\n    tag_146:\n        /* \"#utility.yul\":7393:7471   */\n      swap4\n      pop\n        /* \"#utility.yul\":7480:7545   */\n      tag_147\n        /* \"#utility.yul\":7538:7544   */\n      dup2\n        /* \"#utility.yul\":7533:7536   */\n      dup6\n        /* \"#utility.yul\":7526:7530   */\n      0x20\n        /* \"#utility.yul\":7519:7524   */\n      dup7\n        /* \"#utility.yul\":7515:7531   */\n      add\n        /* \"#utility.yul\":7480:7545   */\n      tag_50\n      jump\t// in\n    tag_147:\n        /* \"#utility.yul\":7570:7599   */\n      tag_148\n        /* \"#utility.yul\":7592:7598   */\n      dup2\n        /* \"#utility.yul\":7570:7599   */\n      tag_36\n      jump\t// in\n    tag_148:\n        /* \"#utility.yul\":7565:7568   */\n      dup5\n        /* \"#utility.yul\":7561:7600   */\n      add\n        /* \"#utility.yul\":7554:7600   */\n      swap2\n      pop\n        /* \"#utility.yul\":7321:7606   */\n      pop\n        /* \"#utility.yul\":7229:7606   */\n      swap3\n      swap2\n      pop\n      pop\n      jump\t// out\n        /* \"#utility.yul\":7612:7726   */\n    tag_52:\n        /* \"#utility.yul\":7679:7685   */\n      0x00\n        /* \"#utility.yul\":7713:7718   */\n      dup2\n        /* \"#utility.yul\":7707:7719   */\n      mload\n        /* \"#utility.yul\":7697:7719   */\n      swap1\n      pop\n        /* \"#utility.yul\":7612:7726   */\n      swap2\n      swap1\n      pop\n      jump\t// out\n        /* \"#utility.yul\":7732:7916   */\n    tag_53:\n        /* \"#utility.yul\":7831:7842   */\n      0x00\n        /* \"#utility.yul\":7865:7871   */\n      dup3\n        /* \"#utility.yul\":7860:7863   */\n      dup3\n        /* \"#utility.yul\":7853:7872   */\n      mstore\n        /* \"#utility.yul\":7905:7909   */\n      0x20\n        /* \"#utility.yul\":7900:7903   */\n      dup3\n        /* \"#utility.yul\":7896:7910   */\n      add\n        /* \"#utility.yul\":7881:7910   */\n      swap1\n      pop\n        /* \"#utility.yul\":7732:7916   */\n      swap3\n      swap2\n      pop\n      pop\n      jump\t// out\n        /* \"#utility.yul\":7922:8054   */\n    tag_54:\n        /* \"#utility.yul\":7989:7993   */\n      0x00\n        /* \"#utility.yul\":8012:8015   */\n      dup2\n        /* \"#utility.yul\":8004:8015   */\n      swap1\n      pop\n        /* \"#utility.yul\":8042:8046   */\n      0x20\n        /* \"#utility.yul\":8037:8040   */\n      dup3\n        /* \"#utility.yul\":8033:8047   */\n      add\n        /* \"#utility.yul\":8025:8047   */\n      swap1\n      pop\n        /* \"#utility.yul\":7922:8054   */\n      swap2\n      swap1\n      pop\n      jump\t// out\n        /* \"#utility.yul\":8060:8168   */\n    tag_55:\n        /* \"#utility.yul\":8137:8161   */\n      tag_153\n        /* \"#utility.yul\":8155:8160   */\n      dup2\n        /* \"#utility.yul\":8137:8161   */\n      tag_31\n      jump\t// in\n    tag_153:\n        /* \"#utility.yul\":8132:8135   */\n      dup3\n        /* \"#utility.yul\":8125:8162   */\n      mstore\n        /* \"#utility.yul\":8060:8168   */\n      pop\n      pop\n      jump\t// out\n        /* \"#utility.yul\":8174:8353   */\n    tag_56:\n        /* \"#utility.yul\":8243:8253   */\n      0x00\n        /* \"#utility.yul\":8264:8310   */\n      tag_155\n        /* \"#utility.yul\":8306:8309   */\n      dup4\n        /* \"#utility.yul\":8298:8304   */\n      dup4\n        /* \"#utility.yul\":8264:8310   */\n      tag_55\n      jump\t// in\n    tag_155:\n        /* \"#utility.yul\":8342:8346   */\n      0x20\n        /* \"#utility.yul\":8337:8340   */\n      dup4\n        /* \"#utility.yul\":8333:8347   */\n      add\n        /* \"#utility.yul\":8319:8347   */\n      swap1\n      pop\n        /* \"#utility.yul\":8174:8353   */\n      swap3\n      swap2\n      pop\n      pop\n      jump\t// out\n        /* \"#utility.yul\":8359:8472   */\n    tag_57:\n        /* \"#utility.yul\":8429:8433   */\n      0x00\n        /* \"#utility.yul\":8461:8465   */\n      0x20\n        /* \"#utility.yul\":8456:8459   */\n      dup3\n        /* \"#utility.yul\":8452:8466   */\n      add\n        /* \"#utility.yul\":8444:8466   */\n      swap1\n      pop\n        /* \"#utility.yul\":8359:8472   */\n      swap2\n      swap1\n      pop\n      jump\t// out\n        /* \"#utility.yul\":8508:9240   */\n    tag_58:\n        /* \"#utility.yul\":8627:8630   */\n      0x00\n        /* \"#utility.yul\":8656:8710   */\n      tag_158\n        /* \"#utility.yul\":8704:8709   */\n      dup3\n        /* \"#utility.yul\":8656:8710   */\n      tag_52\n      jump\t// in\n    tag_158:\n        /* \"#utility.yul\":8726:8812   */\n      tag_159\n        /* \"#utility.yul\":8805:8811   */\n      dup2\n        /* \"#utility.yul\":8800:8803   */\n      dup6\n        /* \"#utility.yul\":8726:8812   */\n      tag_53\n      jump\t// in\n    tag_159:\n        /* \"#utility.yul\":8719:8812   */\n      swap4\n      pop\n        /* \"#utility.yul\":8836:8892   */\n      tag_160\n        /* \"#utility.yul\":8886:8891   */\n      dup4\n        /* \"#utility.yul\":8836:8892   */\n      tag_54\n      jump\t// in\n    tag_160:\n        /* \"#utility.yul\":8915:8922   */\n      dup1\n        /* \"#utility.yul\":8946:8947   */\n      0x00\n        /* \"#utility.yul\":8931:9215   */\n    tag_161:\n        /* \"#utility.yul\":8956:8962   */\n      dup4\n        /* \"#utility.yul\":8953:8954   */\n      dup2\n        /* \"#utility.yul\":8950:8963   */\n      lt\n        /* \"#utility.yul\":8931:9215   */\n      iszero\n      tag_163\n      jumpi\n        /* \"#utility.yul\":9032:9038   */\n      dup2\n        /* \"#utility.yul\":9026:9039   */\n      mload\n        /* \"#utility.yul\":9059:9122   */\n      tag_164\n        /* \"#utility.yul\":9118:9121   */\n      dup9\n        /* \"#utility.yul\":9103:9116   */\n      dup3\n        /* \"#utility.yul\":9059:9122   */\n      tag_56\n      jump\t// in\n    tag_164:\n        /* \"#utility.yul\":9052:9122   */\n      swap8\n      pop\n        /* \"#utility.yul\":9145:9205   */\n      tag_165\n        /* \"#utility.yul\":9198:9204   */\n      dup4\n        /* \"#utility.yul\":9145:9205   */\n      tag_57\n      jump\t// in\n    tag_165:\n        /* \"#utility.yul\":9135:9205   */\n      swap3\n      pop\n        /* \"#utility.yul\":8991:9215   */\n      pop\n        /* \"#utility.yul\":8978:8979   */\n      0x01\n        /* \"#utility.yul\":8975:8976   */\n      dup2\n        /* \"#utility.yul\":8971:8980   */\n      add\n        /* \"#utility.yul\":8966:8980   */\n      swap1\n      pop\n        /* \"#utility.yul\":8931:9215   */\n      jump(tag_161)\n    tag_163:\n        /* \"#utility.yul\":8935:8949   */\n      pop\n        /* \"#utility.yul\":9231:9234   */\n      dup6\n        /* \"#utility.yul\":9224:9234   */\n      swap4\n      pop\n        /* \"#utility.yul\":8632:9240   */\n      pop\n      pop\n      pop\n        /* \"#utility.yul\":8508:9240   */\n      swap3\n      swap2\n      pop\n      pop\n      jump\t// out\n        /* \"#utility.yul\":9246:9820   */\n    tag_15:\n        /* \"#utility.yul\":9437:9441   */\n      0x00\n        /* \"#utility.yul\":9475:9477   */\n      0x40\n        /* \"#utility.yul\":9464:9473   */\n      dup3\n        /* \"#utility.yul\":9460:9478   */\n      add\n        /* \"#utility.yul\":9452:9478   */\n      swap1\n      pop\n        /* \"#utility.yul\":9524:9533   */\n      dup2\n        /* \"#utility.yul\":9518:9522   */\n      dup2\n        /* \"#utility.yul\":9514:9534   */\n      sub\n        /* \"#utility.yul\":9510:9511   */\n      0x00\n        /* \"#utility.yul\":9499:9508   */\n      dup4\n        /* \"#utility.yul\":9495:9512   */\n      add\n        /* \"#utility.yul\":9488:9535   */\n      mstore\n        /* \"#utility.yul\":9552:9630   */\n      tag_167\n        /* \"#utility.yul\":9625:9629   */\n      dup2\n        /* \"#utility.yul\":9616:9622   */\n      dup6\n        /* \"#utility.yul\":9552:9630   */\n      tag_51\n      jump\t// in\n    tag_167:\n        /* \"#utility.yul\":9544:9630   */\n      swap1\n      pop\n        /* \"#utility.yul\":9677:9686   */\n      dup2\n        /* \"#utility.yul\":9671:9675   */\n      dup2\n        /* \"#utility.yul\":9667:9687   */\n      sub\n        /* \"#utility.yul\":9662:9664   */\n      0x20\n        /* \"#utility.yul\":9651:9660   */\n      dup4\n        /* \"#utility.yul\":9647:9665   */\n      add\n        /* \"#utility.yul\":9640:9688   */\n      mstore\n        /* \"#utility.yul\":9705:9813   */\n      tag_168\n        /* \"#utility.yul\":9808:9812   */\n      dup2\n        /* \"#utility.yul\":9799:9805   */\n      dup5\n        /* \"#utility.yul\":9705:9813   */\n      tag_58\n      jump\t// in\n    tag_168:\n        /* \"#utility.yul\":9697:9813   */\n      swap1\n      pop\n        /* \"#utility.yul\":9246:9820   */\n      swap4\n      swap3\n      pop\n      pop\n      pop\n      jump\t// out\n        /* \"#utility.yul\":9826:9944   */\n    tag_59:\n        /* \"#utility.yul\":9913:9937   */\n      tag_170\n        /* \"#utility.yul\":9931:9936   */\n      dup2\n        /* \"#utility.yul\":9913:9937   */\n      tag_31\n      jump\t// in\n    tag_170:\n        /* \"#utility.yul\":9908:9911   */\n      dup3\n        /* \"#utility.yul\":9901:9938   */\n      mstore\n        /* \"#utility.yul\":9826:9944   */\n      pop\n      pop\n      jump\t// out\n        /* \"#utility.yul\":9950:10634   */\n    tag_18:\n        /* \"#utility.yul\":10169:10173   */\n      0x00\n        /* \"#utility.yul\":10207:10209   */\n      0x60\n        /* \"#utility.yul\":10196:10205   */\n      dup3\n        /* \"#utility.yul\":10192:10210   */\n      add\n        /* \"#utility.yul\":10184:10210   */\n      swap1\n      pop\n        /* \"#utility.yul\":10220:10291   */\n      tag_172\n        /* \"#utility.yul\":10288:10289   */\n      0x00\n        /* \"#utility.yul\":10277:10286   */\n      dup4\n        /* \"#utility.yul\":10273:10290   */\n      add\n        /* \"#utility.yul\":10264:10270   */\n      dup7\n        /* \"#utility.yul\":10220:10291   */\n      tag_59\n      jump\t// in\n    tag_172:\n        /* \"#utility.yul\":10338:10347   */\n      dup2\n        /* \"#utility.yul\":10332:10336   */\n      dup2\n        /* \"#utility.yul\":10328:10348   */\n      sub\n        /* \"#utility.yul\":10323:10325   */\n      0x20\n        /* \"#utility.yul\":10312:10321   */\n      dup4\n        /* \"#utility.yul\":10308:10326   */\n      add\n        /* \"#utility.yul\":10301:10349   */\n      mstore\n        /* \"#utility.yul\":10366:10444   */\n      tag_173\n        /* \"#utility.yul\":10439:10443   */\n      dup2\n        /* \"#utility.yul\":10430:10436   */\n      dup6\n        /* \"#utility.yul\":10366:10444   */\n      tag_51\n      jump\t// in\n    tag_173:\n        /* \"#utility.yul\":10358:10444   */\n      swap1\n      pop\n        /* \"#utility.yul\":10491:10500   */\n      dup2\n        /* \"#utility.yul\":10485:10489   */\n      dup2\n        /* \"#utility.yul\":10481:10501   */\n      sub\n        /* \"#utility.yul\":10476:10478   */\n      0x40\n        /* \"#utility.yul\":10465:10474   */\n      dup4\n        /* \"#utility.yul\":10461:10479   */\n      add\n        /* \"#utility.yul\":10454:10502   */\n      mstore\n        /* \"#utility.yul\":10519:10627   */\n      tag_174\n        /* \"#utility.yul\":10622:10626   */\n      dup2\n        /* \"#utility.yul\":10613:10619   */\n      dup5\n        /* \"#utility.yul\":10519:10627   */\n      tag_58\n      jump\t// in\n    tag_174:\n        /* \"#utility.yul\":10511:10627   */\n      swap1\n      pop\n        /* \"#utility.yul\":9950:10634   */\n      swap5\n      swap4\n      pop\n      pop\n      pop\n      pop\n      jump\t// out\n        /* \"#utility.yul\":10640:10738   */\n    tag_60:\n        /* \"#utility.yul\":10691:10697   */\n      0x00\n        /* \"#utility.yul\":10725:10730   */\n      dup2\n        /* \"#utility.yul\":10719:10731   */\n      mload\n        /* \"#utility.yul\":10709:10731   */\n      swap1\n      pop\n        /* \"#utility.yul\":10640:10738   */\n      swap2\n      swap1\n      pop\n      jump\t// out\n        /* \"#utility.yul\":10744:10891   */\n    tag_61:\n        /* \"#utility.yul\":10845:10856   */\n      0x00\n        /* \"#utility.yul\":10882:10885   */\n      dup2\n        /* \"#utility.yul\":10867:10885   */\n      swap1\n      pop\n        /* \"#utility.yul\":10744:10891   */\n      swap3\n      swap2\n      pop\n      pop\n      jump\t// out\n        /* \"#utility.yul\":10897:11283   */\n    tag_62:\n        /* \"#utility.yul\":11001:11004   */\n      0x00\n        /* \"#utility.yul\":11029:11067   */\n      tag_178\n        /* \"#utility.yul\":11061:11066   */\n      dup3\n        /* \"#utility.yul\":11029:11067   */\n      tag_60\n      jump\t// in\n    tag_178:\n        /* \"#utility.yul\":11083:11171   */\n      tag_179\n        /* \"#utility.yul\":11164:11170   */\n      dup2\n        /* \"#utility.yul\":11159:11162   */\n      dup6\n        /* \"#utility.yul\":11083:11171   */\n      tag_61\n      jump\t// in\n    tag_179:\n        /* \"#utility.yul\":11076:11171   */\n      swap4\n      pop\n        /* \"#utility.yul\":11180:11245   */\n      tag_180\n        /* \"#utility.yul\":11238:11244   */\n      dup2\n        /* \"#utility.yul\":11233:11236   */\n      dup6\n        /* \"#utility.yul\":11226:11230   */\n      0x20\n        /* \"#utility.yul\":11219:11224   */\n      dup7\n        /* \"#utility.yul\":11215:11231   */\n      add\n        /* \"#utility.yul\":11180:11245   */\n      tag_50\n      jump\t// in\n    tag_180:\n        /* \"#utility.yul\":11270:11276   */\n      dup1\n        /* \"#utility.yul\":11265:11268   */\n      dup5\n        /* \"#utility.yul\":11261:11277   */\n      add\n        /* \"#utility.yul\":11254:11277   */\n      swap2\n      pop\n        /* \"#utility.yul\":11005:11283   */\n      pop\n        /* \"#utility.yul\":10897:11283   */\n      swap3\n      swap2\n      pop\n      pop\n      jump\t// out\n        /* \"#utility.yul\":11289:11560   */\n    tag_20:\n        /* \"#utility.yul\":11419:11422   */\n      0x00\n        /* \"#utility.yul\":11441:11534   */\n      tag_182\n        /* \"#utility.yul\":11530:11533   */\n      dup3\n        /* \"#utility.yul\":11521:11527   */\n      dup5\n        /* \"#utility.yul\":11441:11534   */\n      tag_62\n      jump\t// in\n    tag_182:\n        /* \"#utility.yul\":11434:11534   */\n      swap2\n      pop\n        /* \"#utility.yul\":11551:11554   */\n      dup2\n        /* \"#utility.yul\":11544:11554   */\n      swap1\n      pop\n        /* \"#utility.yul\":11289:11560   */\n      swap3\n      swap2\n      pop\n      pop\n      jump\t// out\n        /* \"#utility.yul\":11566:11739   */\n    tag_63:\n        /* \"#utility.yul\":11706:11731   */\n      0x4661696c656420746f2063616c6c20636f6e7472616374000000000000000000\n        /* \"#utility.yul\":11702:11703   */\n      0x00\n        /* \"#utility.yul\":11694:11700   */\n      dup3\n        /* \"#utility.yul\":11690:11704   */\n      add\n        /* \"#utility.yul\":11683:11732   */\n      mstore\n        /* \"#utility.yul\":11566:11739   */\n      pop\n      jump\t// out\n        /* \"#utility.yul\":11745:12111   */\n    tag_64:\n        /* \"#utility.yul\":11887:11890   */\n      0x00\n        /* \"#utility.yul\":11908:11975   */\n      tag_185\n        /* \"#utility.yul\":11972:11974   */\n      0x17\n        /* \"#utility.yul\":11967:11970   */\n      dup4\n        /* \"#utility.yul\":11908:11975   */\n      tag_49\n      jump\t// in\n    tag_185:\n        /* \"#utility.yul\":11901:11975   */\n      swap2\n      pop\n        /* \"#utility.yul\":11984:12077   */\n      tag_186\n        /* \"#utility.yul\":12073:12076   */\n      dup3\n        /* \"#utility.yul\":11984:12077   */\n      tag_63\n      jump\t// in\n    tag_186:\n        /* \"#utility.yul\":12102:12104   */\n      0x20\n        /* \"#utility.yul\":12097:12100   */\n      dup3\n        /* \"#utility.yul\":12093:12105   */\n      add\n        /* \"#utility.yul\":12086:12105   */\n      swap1\n      pop\n        /* \"#utility.yul\":11745:12111   */\n      swap2\n      swap1\n      pop\n      jump\t// out\n        /* \"#utility.yul\":12117:12536   */\n    tag_26:\n        /* \"#utility.yul\":12283:12287   */\n      0x00\n        /* \"#utility.yul\":12321:12323   */\n      0x20\n        /* \"#utility.yul\":12310:12319   */\n      dup3\n        /* \"#utility.yul\":12306:12324   */\n      add\n        /* \"#utility.yul\":12298:12324   */\n      swap1\n      pop\n        /* \"#utility.yul\":12370:12379   */\n      dup2\n        /* \"#utility.yul\":12364:12368   */\n      dup2\n        /* \"#utility.yul\":12360:12380   */\n      sub\n        /* \"#utility.yul\":12356:12357   */\n      0x00\n        /* \"#utility.yul\":12345:12354   */\n      dup4\n        /* \"#utility.yul\":12341:12358   */\n      add\n        /* \"#utility.yul\":12334:12381   */\n      mstore\n        /* \"#utility.yul\":12398:12529   */\n      tag_188\n        /* \"#utility.yul\":12524:12528   */\n      dup2\n        /* \"#utility.yul\":12398:12529   */\n      tag_64\n      jump\t// in\n    tag_188:\n        /* \"#utility.yul\":12390:12529   */\n      swap1\n      pop\n        /* \"#utility.yul\":12117:12536   */\n      swap2\n      swap1\n      pop\n      jump\t// out\n\n    auxdata: 0xa2646970667358221220ae91e214883af946031409e47a289c18a1a31a246b6d48c7dab4978bdfa3a65564736f6c634300081a0033\n}\n",
				"bytecode": {
					"linkReferences": {},
					"object": "6080604052348015600e575f80fd5b5061082a8061001c5f395ff3fe608060405234801561000f575f80fd5b5060043610610034575f3560e01c80631b7981171461003857806345b2e60f14610054575b5f80fd5b610052600480360381019061004d9190610470565b610070565b005b61006e600480360381019061006991906104f8565b6100c5565b005b8273ffffffffffffffffffffffffffffffffffffffff167f72e8ebcae3e3b13ac834d1682aff005d8d47b878ffdacb8518facd2034de2cda83836040516100b89291906106ab565b60405180910390a2505050565b5f8373ffffffffffffffffffffffffffffffffffffffff168584846040516024016100f2939291906106ef565b6040516020818303038152906040527f1b798117000000000000000000000000000000000000000000000000000000007bffffffffffffffffffffffffffffffffffffffffffffffffffffffff19166020820180517bffffffffffffffffffffffffffffffffffffffffffffffffffffffff838183161783525050505060405161017c9190610776565b5f604051808303815f865af19150503d805f81146101b5576040519150601f19603f3d011682016040523d82523d5f602084013e6101ba565b606091505b50509050806101fe576040517f08c379a00000000000000000000000000000000000000000000000000000000081526004016101f5906107d6565b60405180910390fd5b5050505050565b5f604051905090565b5f80fd5b5f80fd5b5f73ffffffffffffffffffffffffffffffffffffffff82169050919050565b5f61023f82610216565b9050919050565b61024f81610235565b8114610259575f80fd5b50565b5f8135905061026a81610246565b92915050565b5f80fd5b5f80fd5b5f601f19601f8301169050919050565b7f4e487b71000000000000000000000000000000000000000000000000000000005f52604160045260245ffd5b6102be82610278565b810181811067ffffffffffffffff821117156102dd576102dc610288565b5b80604052505050565b5f6102ef610205565b90506102fb82826102b5565b919050565b5f67ffffffffffffffff82111561031a57610319610288565b5b61032382610278565b9050602081019050919050565b828183375f83830152505050565b5f61035061034b84610300565b6102e6565b90508281526020810184848401111561036c5761036b610274565b5b610377848285610330565b509392505050565b5f82601f83011261039357610392610270565b5b81356103a384826020860161033e565b91505092915050565b5f67ffffffffffffffff8211156103c6576103c5610288565b5b602082029050602081019050919050565b5f80fd5b5f6103ed6103e8846103ac565b6102e6565b905080838252602082019050602084028301858111156104105761040f6103d7565b5b835b818110156104395780610425888261025c565b845260208401935050602081019050610412565b5050509392505050565b5f82601f83011261045757610456610270565b5b81356104678482602086016103db565b91505092915050565b5f805f606084860312156104875761048661020e565b5b5f6104948682870161025c565b935050602084013567ffffffffffffffff8111156104b5576104b4610212565b5b6104c18682870161037f565b925050604084013567ffffffffffffffff8111156104e2576104e1610212565b5b6104ee86828701610443565b9150509250925092565b5f805f80608085870312156105105761050f61020e565b5b5f61051d8782880161025c565b945050602061052e8782880161025c565b935050604085013567ffffffffffffffff81111561054f5761054e610212565b5b61055b8782880161037f565b925050606085013567ffffffffffffffff81111561057c5761057b610212565b5b61058887828801610443565b91505092959194509250565b5f81519050919050565b5f82825260208201905092915050565b8281835e5f83830152505050565b5f6105c682610594565b6105d0818561059e565b93506105e08185602086016105ae565b6105e981610278565b840191505092915050565b5f81519050919050565b5f82825260208201905092915050565b5f819050602082019050919050565b61062681610235565b82525050565b5f610637838361061d565b60208301905092915050565b5f602082019050919050565b5f610659826105f4565b61066381856105fe565b935061066e8361060e565b805f5b8381101561069e578151610685888261062c565b975061069083610643565b925050600181019050610671565b5085935050505092915050565b5f6040820190508181035f8301526106c381856105bc565b905081810360208301526106d7818461064f565b90509392505050565b6106e981610235565b82525050565b5f6060820190506107025f8301866106e0565b818103602083015261071481856105bc565b90508181036040830152610728818461064f565b9050949350505050565b5f81519050919050565b5f81905092915050565b5f61075082610732565b61075a818561073c565b935061076a8185602086016105ae565b80840191505092915050565b5f6107818284610746565b915081905092915050565b7f4661696c656420746f2063616c6c20636f6e74726163740000000000000000005f82015250565b5f6107c060178361059e565b91506107cb8261078c565b602082019050919050565b5f6020820190508181035f8301526107ed816107b4565b905091905056fea2646970667358221220ae91e214883af946031409e47a289c18a1a31a246b6d48c7dab4978bdfa3a65564736f6c634300081a0033",
					"opcodes": "PUSH1 0x80 PUSH1 0x40 MSTORE CALLVALUE DUP1 ISZERO PUSH1 0xE JUMPI PUSH0 DUP1 REVERT JUMPDEST POP PUSH2 0x82A DUP1 PUSH2 0x1C PUSH0 CODECOPY PUSH0 RETURN INVALID PUSH1 0x80 PUSH1 0x40 MSTORE CALLVALUE DUP1 ISZERO PUSH2 0xF JUMPI PUSH0 DUP1 REVERT JUMPDEST POP PUSH1 0x4 CALLDATASIZE LT PUSH2 0x34 JUMPI PUSH0 CALLDATALOAD PUSH1 0xE0 SHR DUP1 PUSH4 0x1B798117 EQ PUSH2 0x38 JUMPI DUP1 PUSH4 0x45B2E60F EQ PUSH2 0x54 JUMPI JUMPDEST PUSH0 DUP1 REVERT JUMPDEST PUSH2 0x52 PUSH1 0x4 DUP1 CALLDATASIZE SUB DUP2 ADD SWAP1 PUSH2 0x4D SWAP2 SWAP1 PUSH2 0x470 JUMP JUMPDEST PUSH2 0x70 JUMP JUMPDEST STOP JUMPDEST PUSH2 0x6E PUSH1 0x4 DUP1 CALLDATASIZE SUB DUP2 ADD SWAP1 PUSH2 0x69 SWAP2 SWAP1 PUSH2 0x4F8 JUMP JUMPDEST PUSH2 0xC5 JUMP JUMPDEST STOP JUMPDEST DUP3 PUSH20 0xFFFFFFFFFFFFFFFFFFFFFFFFFFFFFFFFFFFFFFFF AND PUSH32 0x72E8EBCAE3E3B13AC834D1682AFF005D8D47B878FFDACB8518FACD2034DE2CDA DUP4 DUP4 PUSH1 0x40 MLOAD PUSH2 0xB8 SWAP3 SWAP2 SWAP1 PUSH2 0x6AB JUMP JUMPDEST PUSH1 0x40 MLOAD DUP1 SWAP2 SUB SWAP1 LOG2 POP POP POP JUMP JUMPDEST PUSH0 DUP4 PUSH20 0xFFFFFFFFFFFFFFFFFFFFFFFFFFFFFFFFFFFFFFFF AND DUP6 DUP5 DUP5 PUSH1 0x40 MLOAD PUSH1 0x24 ADD PUSH2 0xF2 SWAP4 SWAP3 SWAP2 SWAP1 PUSH2 0x6EF JUMP JUMPDEST PUSH1 0x40 MLOAD PUSH1 0x20 DUP2 DUP4 SUB SUB DUP2 MSTORE SWAP1 PUSH1 0x40 MSTORE PUSH32 0x1B79811700000000000000000000000000000000000000000000000000000000 PUSH28 0xFFFFFFFFFFFFFFFFFFFFFFFFFFFFFFFFFFFFFFFFFFFFFFFFFFFFFFFF NOT AND PUSH1 0x20 DUP3 ADD DUP1 MLOAD PUSH28 0xFFFFFFFFFFFFFFFFFFFFFFFFFFFFFFFFFFFFFFFFFFFFFFFFFFFFFFFF DUP4 DUP2 DUP4 AND OR DUP4 MSTORE POP POP POP POP PUSH1 0x40 MLOAD PUSH2 0x17C SWAP2 SWAP1 PUSH2 0x776 JUMP JUMPDEST PUSH0 PUSH1 0x40 MLOAD DUP1 DUP4 SUB DUP2 PUSH0 DUP7 GAS CALL SWAP2 POP POP RETURNDATASIZE DUP1 PUSH0 DUP2 EQ PUSH2 0x1B5 JUMPI PUSH1 0x40 MLOAD SWAP2 POP PUSH1 0x1F NOT PUSH1 0x3F RETURNDATASIZE ADD AND DUP3 ADD PUSH1 0x40 MSTORE RETURNDATASIZE DUP3 MSTORE RETURNDATASIZE PUSH0 PUSH1 0x20 DUP5 ADD RETURNDATACOPY PUSH2 0x1BA JUMP JUMPDEST PUSH1 0x60 SWAP2 POP JUMPDEST POP POP SWAP1 POP DUP1 PUSH2 0x1FE JUMPI PUSH1 0x40 MLOAD PUSH32 0x8C379A000000000000000000000000000000000000000000000000000000000 DUP2 MSTORE PUSH1 0x4 ADD PUSH2 0x1F5 SWAP1 PUSH2 0x7D6 JUMP JUMPDEST PUSH1 0x40 MLOAD DUP1 SWAP2 SUB SWAP1 REVERT JUMPDEST POP POP POP POP POP JUMP JUMPDEST PUSH0 PUSH1 0x40 MLOAD SWAP1 POP SWAP1 JUMP JUMPDEST PUSH0 DUP1 REVERT JUMPDEST PUSH0 DUP1 REVERT JUMPDEST PUSH0 PUSH20 0xFFFFFFFFFFFFFFFFFFFFFFFFFFFFFFFFFFFFFFFF DUP3 AND SWAP1 POP SWAP2 SWAP1 POP JUMP JUMPDEST PUSH0 PUSH2 0x23F DUP3 PUSH2 0x216 JUMP JUMPDEST SWAP1 POP SWAP2 SWAP1 POP JUMP JUMPDEST PUSH2 0x24F DUP2 PUSH2 0x235 JUMP JUMPDEST DUP2 EQ PUSH2 0x259 JUMPI PUSH0 DUP1 REVERT JUMPDEST POP JUMP JUMPDEST PUSH0 DUP2 CALLDATALOAD SWAP1 POP PUSH2 0x26A DUP2 PUSH2 0x246 JUMP JUMPDEST SWAP3 SWAP2 POP POP JUMP JUMPDEST PUSH0 DUP1 REVERT JUMPDEST PUSH0 DUP1 REVERT JUMPDEST PUSH0 PUSH1 0x1F NOT PUSH1 0x1F DUP4 ADD AND SWAP1 POP SWAP2 SWAP1 POP JUMP JUMPDEST PUSH32 0x4E487B7100000000000000000000000000000000000000000000000000000000 PUSH0 MSTORE PUSH1 0x41 PUSH1 0x4 MSTORE PUSH1 0x24 PUSH0 REVERT JUMPDEST PUSH2 0x2BE DUP3 PUSH2 0x278 JUMP JUMPDEST DUP2 ADD DUP2 DUP2 LT PUSH8 0xFFFFFFFFFFFFFFFF DUP3 GT OR ISZERO PUSH2 0x2DD JUMPI PUSH2 0x2DC PUSH2 0x288 JUMP JUMPDEST JUMPDEST DUP1 PUSH1 0x40 MSTORE POP POP POP JUMP JUMPDEST PUSH0 PUSH2 0x2EF PUSH2 0x205 JUMP JUMPDEST SWAP1 POP PUSH2 0x2FB DUP3 DUP3 PUSH2 0x2B5 JUMP JUMPDEST SWAP2 SWAP1 POP JUMP JUMPDEST PUSH0 PUSH8 0xFFFFFFFFFFFFFFFF DUP3 GT ISZERO PUSH2 0x31A JUMPI PUSH2 0x319 PUSH2 0x288 JUMP JUMPDEST JUMPDEST PUSH2 0x323 DUP3 PUSH2 0x278 JUMP JUMPDEST SWAP1 POP PUSH1 0x20 DUP2 ADD SWAP1 POP SWAP2 SWAP1 POP JUMP JUMPDEST DUP3 DUP2 DUP4 CALLDATACOPY PUSH0 DUP4 DUP4 ADD MSTORE POP POP POP JUMP JUMPDEST PUSH0 PUSH2 0x350 PUSH2 0x34B DUP5 PUSH2 0x300 JUMP JUMPDEST PUSH2 0x2E6 JUMP JUMPDEST SWAP1 POP DUP3 DUP2 MSTORE PUSH1 0x20 DUP2 ADD DUP5 DUP5 DUP5 ADD GT ISZERO PUSH2 0x36C JUMPI PUSH2 0x36B PUSH2 0x274 JUMP JUMPDEST JUMPDEST PUSH2 0x377 DUP5 DUP3 DUP6 PUSH2 0x330 JUMP JUMPDEST POP SWAP4 SWAP3 POP POP POP JUMP JUMPDEST PUSH0 DUP3 PUSH1 0x1F DUP4 ADD SLT PUSH2 0x393 JUMPI PUSH2 0x392 PUSH2 0x270 JUMP JUMPDEST JUMPDEST DUP2 CALLDATALOAD PUSH2 0x3A3 DUP5 DUP3 PUSH1 0x20 DUP7 ADD PUSH2 0x33E JUMP JUMPDEST SWAP2 POP POP SWAP3 SWAP2 POP POP JUMP JUMPDEST PUSH0 PUSH8 0xFFFFFFFFFFFFFFFF DUP3 GT ISZERO PUSH2 0x3C6 JUMPI PUSH2 0x3C5 PUSH2 0x288 JUMP JUMPDEST JUMPDEST PUSH1 0x20 DUP3 MUL SWAP1 POP PUSH1 0x20 DUP2 ADD SWAP1 POP SWAP2 SWAP1 POP JUMP JUMPDEST PUSH0 DUP1 REVERT JUMPDEST PUSH0 PUSH2 0x3ED PUSH2 0x3E8 DUP5 PUSH2 0x3AC JUMP JUMPDEST PUSH2 0x2E6 JUMP JUMPDEST SWAP1 POP DUP1 DUP4 DUP3 MSTORE PUSH1 0x20 DUP3 ADD SWAP1 POP PUSH1 0x20 DUP5 MUL DUP4 ADD DUP6 DUP2 GT ISZERO PUSH2 0x410 JUMPI PUSH2 0x40F PUSH2 0x3D7 JUMP JUMPDEST JUMPDEST DUP4 JUMPDEST DUP2 DUP2 LT ISZERO PUSH2 0x439 JUMPI DUP1 PUSH2 0x425 DUP9 DUP3 PUSH2 0x25C JUMP JUMPDEST DUP5 MSTORE PUSH1 0x20 DUP5 ADD SWAP4 POP POP PUSH1 0x20 DUP2 ADD SWAP1 POP PUSH2 0x412 JUMP JUMPDEST POP POP POP SWAP4 SWAP3 POP POP POP JUMP JUMPDEST PUSH0 DUP3 PUSH1 0x1F DUP4 ADD SLT PUSH2 0x457 JUMPI PUSH2 0x456 PUSH2 0x270 JUMP JUMPDEST JUMPDEST DUP2 CALLDATALOAD PUSH2 0x467 DUP5 DUP3 PUSH1 0x20 DUP7 ADD PUSH2 0x3DB JUMP JUMPDEST SWAP2 POP POP SWAP3 SWAP2 POP POP JUMP JUMPDEST PUSH0 DUP1 PUSH0 PUSH1 0x60 DUP5 DUP7 SUB SLT ISZERO PUSH2 0x487 JUMPI PUSH2 0x486 PUSH2 0x20E JUMP JUMPDEST JUMPDEST PUSH0 PUSH2 0x494 DUP7 DUP3 DUP8 ADD PUSH2 0x25C JUMP JUMPDEST SWAP4 POP POP PUSH1 0x20 DUP5 ADD CALLDATALOAD PUSH8 0xFFFFFFFFFFFFFFFF DUP2 GT ISZERO PUSH2 0x4B5 JUMPI PUSH2 0x4B4 PUSH2 0x212 JUMP JUMPDEST JUMPDEST PUSH2 0x4C1 DUP7 DUP3 DUP8 ADD PUSH2 0x37F JUMP JUMPDEST SWAP3 POP POP PUSH1 0x40 DUP5 ADD CALLDATALOAD PUSH8 0xFFFFFFFFFFFFFFFF DUP2 GT ISZERO PUSH2 0x4E2 JUMPI PUSH2 0x4E1 PUSH2 0x212 JUMP JUMPDEST JUMPDEST PUSH2 0x4EE DUP7 DUP3 DUP8 ADD PUSH2 0x443 JUMP JUMPDEST SWAP2 POP POP SWAP3 POP SWAP3 POP SWAP3 JUMP JUMPDEST PUSH0 DUP1 PUSH0 DUP1 PUSH1 0x80 DUP6 DUP8 SUB SLT ISZERO PUSH2 0x510 JUMPI PUSH2 0x50F PUSH2 0x20E JUMP JUMPDEST JUMPDEST PUSH0 PUSH2 0x51D DUP8 DUP3 DUP9 ADD PUSH2 0x25C JUMP JUMPDEST SWAP5 POP POP PUSH1 0x20 PUSH2 0x52E DUP8 DUP3 DUP9 ADD PUSH2 0x25C JUMP JUMPDEST SWAP4 POP POP PUSH1 0x40 DUP6 ADD CALLDATALOAD PUSH8 0xFFFFFFFFFFFFFFFF DUP2 GT ISZERO PUSH2 0x54F JUMPI PUSH2 0x54E PUSH2 0x212 JUMP JUMPDEST JUMPDEST PUSH2 0x55B DUP8 DUP3 DUP9 ADD PUSH2 0x37F JUMP JUMPDEST SWAP3 POP POP PUSH1 0x60 DUP6 ADD CALLDATALOAD PUSH8 0xFFFFFFFFFFFFFFFF DUP2 GT ISZERO PUSH2 0x57C JUMPI PUSH2 0x57B PUSH2 0x212 JUMP JUMPDEST JUMPDEST PUSH2 0x588 DUP8 DUP3 DUP9 ADD PUSH2 0x443 JUMP JUMPDEST SWAP2 POP POP SWAP3 SWAP6 SWAP2 SWAP5 POP SWAP3 POP JUMP JUMPDEST PUSH0 DUP2 MLOAD SWAP1 POP SWAP2 SWAP1 POP JUMP JUMPDEST PUSH0 DUP3 DUP3 MSTORE PUSH1 0x20 DUP3 ADD SWAP1 POP SWAP3 SWAP2 POP POP JUMP JUMPDEST DUP3 DUP2 DUP4 MCOPY PUSH0 DUP4 DUP4 ADD MSTORE POP POP POP JUMP JUMPDEST PUSH0 PUSH2 0x5C6 DUP3 PUSH2 0x594 JUMP JUMPDEST PUSH2 0x5D0 DUP2 DUP6 PUSH2 0x59E JUMP JUMPDEST SWAP4 POP PUSH2 0x5E0 DUP2 DUP6 PUSH1 0x20 DUP7 ADD PUSH2 0x5AE JUMP JUMPDEST PUSH2 0x5E9 DUP2 PUSH2 0x278 JUMP JUMPDEST DUP5 ADD SWAP2 POP POP SWAP3 SWAP2 POP POP JUMP JUMPDEST PUSH0 DUP2 MLOAD SWAP1 POP SWAP2 SWAP1 POP JUMP JUMPDEST PUSH0 DUP3 DUP3 MSTORE PUSH1 0x20 DUP3 ADD SWAP1 POP SWAP3 SWAP2 POP POP JUMP JUMPDEST PUSH0 DUP2 SWAP1 POP PUSH1 0x20 DUP3 ADD SWAP1 POP SWAP2 SWAP1 POP JUMP JUMPDEST PUSH2 0x626 DUP2 PUSH2 0x235 JUMP JUMPDEST DUP3 MSTORE POP POP JUMP JUMPDEST PUSH0 PUSH2 0x637 DUP4 DUP4 PUSH2 0x61D JUMP JUMPDEST PUSH1 0x20 DUP4 ADD SWAP1 POP SWAP3 SWAP2 POP POP JUMP JUMPDEST PUSH0 PUSH1 0x20 DUP3 ADD SWAP1 POP SWAP2 SWAP1 POP JUMP JUMPDEST PUSH0 PUSH2 0x659 DUP3 PUSH2 0x5F4 JUMP JUMPDEST PUSH2 0x663 DUP2 DUP6 PUSH2 0x5FE JUMP JUMPDEST SWAP4 POP PUSH2 0x66E DUP4 PUSH2 0x60E JUMP JUMPDEST DUP1 PUSH0 JUMPDEST DUP4 DUP2 LT ISZERO PUSH2 0x69E JUMPI DUP2 MLOAD PUSH2 0x685 DUP9 DUP3 PUSH2 0x62C JUMP JUMPDEST SWAP8 POP PUSH2 0x690 DUP4 PUSH2 0x643 JUMP JUMPDEST SWAP3 POP POP PUSH1 0x1 DUP2 ADD SWAP1 POP PUSH2 0x671 JUMP JUMPDEST POP DUP6 SWAP4 POP POP POP POP SWAP3 SWAP2 POP POP JUMP JUMPDEST PUSH0 PUSH1 0x40 DUP3 ADD SWAP1 POP DUP2 DUP2 SUB PUSH0 DUP4 ADD MSTORE PUSH2 0x6C3 DUP2 DUP6 PUSH2 0x5BC JUMP JUMPDEST SWAP1 POP DUP2 DUP2 SUB PUSH1 0x20 DUP4 ADD MSTORE PUSH2 0x6D7 DUP2 DUP5 PUSH2 0x64F JUMP JUMPDEST SWAP1 POP SWAP4 SWAP3 POP POP POP JUMP JUMPDEST PUSH2 0x6E9 DUP2 PUSH2 0x235 JUMP JUMPDEST DUP3 MSTORE POP POP JUMP JUMPDEST PUSH0 PUSH1 0x60 DUP3 ADD SWAP1 POP PUSH2 0x702 PUSH0 DUP4 ADD DUP7 PUSH2 0x6E0 JUMP JUMPDEST DUP2 DUP2 SUB PUSH1 0x20 DUP4 ADD MSTORE PUSH2 0x714 DUP2 DUP6 PUSH2 0x5BC JUMP JUMPDEST SWAP1 POP DUP2 DUP2 SUB PUSH1 0x40 DUP4 ADD MSTORE PUSH2 0x728 DUP2 DUP5 PUSH2 0x64F JUMP JUMPDEST SWAP1 POP SWAP5 SWAP4 POP POP POP POP JUMP JUMPDEST PUSH0 DUP2 MLOAD SWAP1 POP SWAP2 SWAP1 POP JUMP JUMPDEST PUSH0 DUP2 SWAP1 POP SWAP3 SWAP2 POP POP JUMP JUMPDEST PUSH0 PUSH2 0x750 DUP3 PUSH2 0x732 JUMP JUMPDEST PUSH2 0x75A DUP2 DUP6 PUSH2 0x73C JUMP JUMPDEST SWAP4 POP PUSH2 0x76A DUP2 DUP6 PUSH1 0x20 DUP7 ADD PUSH2 0x5AE JUMP JUMPDEST DUP1 DUP5 ADD SWAP2 POP POP SWAP3 SWAP2 POP POP JUMP JUMPDEST PUSH0 PUSH2 0x781 DUP3 DUP5 PUSH2 0x746 JUMP JUMPDEST SWAP2 POP DUP2 SWAP1 POP SWAP3 SWAP2 POP POP JUMP JUMPDEST PUSH32 0x4661696C656420746F2063616C6C20636F6E7472616374000000000000000000 PUSH0 DUP3 ADD MSTORE POP JUMP JUMPDEST PUSH0 PUSH2 0x7C0 PUSH1 0x17 DUP4 PUSH2 0x59E JUMP JUMPDEST SWAP2 POP PUSH2 0x7CB DUP3 PUSH2 0x78C JUMP JUMPDEST PUSH1 0x20 DUP3 ADD SWAP1 POP SWAP2 SWAP1 POP JUMP JUMPDEST PUSH0 PUSH1 0x20 DUP3 ADD SWAP1 POP DUP2 DUP2 SUB PUSH0 DUP4 ADD MSTORE PUSH2 0x7ED DUP2 PUSH2 0x7B4 JUMP JUMPDEST SWAP1 POP SWAP2 SWAP1 POP JUMP INVALID LOG2 PUSH5 0x6970667358 0x22 SLT KECCAK256 0xAE SWAP2 0xE2 EQ DUP9 GASPRICE 0xF9 CHAINID SUB EQ MULMOD 0xE4 PUSH27 0x289C18A1A31A246B6D48C7DAB4978BDFA3A65564736F6C63430008 BYTE STOP CALLER "
				},
				"gasEstimates": {
					"creation": {
						"codeDepositCost": "418000",
						"executionCost": "453",
						"totalCost": "418453"
					},
					"external": {
						"callOtherContracts(address,address,string,address[])": "infinite",
						"requestData(address,string,address[])": "infinite"
					}
				},
				"methodIdentifiers": {
					"callOtherContracts(address,address,string,address[])": "45b2e60f",
					"requestData(address,string,address[])": "1b798117"
				}
			},
			"storageLayout": {
				"storage": [],
				"types": null
			},
			"userdoc": {
				"kind": "user",
				"methods": {},
				"version": 1
			}
		}
	}
}